{"abi":[{"type":"function","name":"arithmeticError","inputs":[],"outputs":[{"name":"","type":"bytes","internalType":"bytes"}],"stateMutability":"view"},{"type":"function","name":"assertionError","inputs":[],"outputs":[{"name":"","type":"bytes","internalType":"bytes"}],"stateMutability":"view"},{"type":"function","name":"divisionError","inputs":[],"outputs":[{"name":"","type":"bytes","internalType":"bytes"}],"stateMutability":"view"},{"type":"function","name":"encodeStorageError","inputs":[],"outputs":[{"name":"","type":"bytes","internalType":"bytes"}],"stateMutability":"view"},{"type":"function","name":"enumConversionError","inputs":[],"outputs":[{"name":"","type":"bytes","internalType":"bytes"}],"stateMutability":"view"},{"type":"function","name":"indexOOBError","inputs":[],"outputs":[{"name":"","type":"bytes","internalType":"bytes"}],"stateMutability":"view"},{"type":"function","name":"lowLevelError","inputs":[],"outputs":[{"name":"","type":"bytes","internalType":"bytes"}],"stateMutability":"view"},{"type":"function","name":"memOverflowError","inputs":[],"outputs":[{"name":"","type":"bytes","internalType":"bytes"}],"stateMutability":"view"},{"type":"function","name":"popError","inputs":[],"outputs":[{"name":"","type":"bytes","internalType":"bytes"}],"stateMutability":"view"},{"type":"function","name":"zeroVarError","inputs":[],"outputs":[{"name":"","type":"bytes","internalType":"bytes"}],"stateMutability":"view"}],"bytecode":{"object":"0x610270610039600b82828239805160001a607314602c57634e487b7160e01b600052600060045260246000fd5b30600052607381538281f3fe73000000000000000000000000000000000000000030146080604052600436106100a85760003560e01c8063ac3d92c611610070578063ac3d92c6146100eb578063b22dc54d14610101578063b67689da14610109578063d160e4de14610111578063fa784a441461011957600080fd5b806305ee8612146100ad57806310332977146100cb5780631de45560146100d35780638995290f146100db578063986c5f68146100e3575b600080fd5b6100b5610121565b6040516100c291906101ec565b60405180910390f35b6100b561015c565b6100b561016e565b6100b5610180565b6100b5610192565b6100b56040518060200160405280600081525081565b6100b56101a4565b6100b56101b6565b6100b56101c8565b6100b56101da565b604051603260248201526044015b60408051601f198184030181529190526020810180516001600160e01b0316634e487b7160e01b17905281565b6040516001602482015260440161012f565b6040516021602482015260440161012f565b6040516011602482015260440161012f565b6040516041602482015260440161012f565b6040516031602482015260440161012f565b6040516051602482015260440161012f565b6040516022602482015260440161012f565b6040516012602482015260440161012f565b602081526000825180602084015260005b8181101561021a57602081860181015160408684010152016101fd565b506000604082850101526040601f19601f8301168401019150509291505056fea2646970667358221220a9b622cb55c3ee51dbbf93cc95aea5f703509493d3203d4162d12bf06f48931c64736f6c634300081a0033","linkReferences":{}},"methodIdentifiers":{"arithmeticError()":"8995290f","assertionError()":"10332977","divisionError()":"fa784a44","encodeStorageError()":"d160e4de","enumConversionError()":"1de45560","indexOOBError()":"05ee8612","lowLevelError()":"ac3d92c6","memOverflowError()":"986c5f68","popError()":"b22dc54d","zeroVarError()":"b67689da"},"id":1}